:020000040000FA
:100000000C94B4070C94E5070C94E5070C94E507F1
:100010000C94E5070C94E5070C94E5070C94E507B0
:100020000C94E5070C94E5070C94E5070C94E507A0
:100030000C94E5070C94E5070C94E5070C94E50790
:100040000C94E5070C94E5070C94E5070C94E50780
:100050000C94E5070C94E5070C94E5070C94D82262
:100060000C94E5070C94D0200C94A6200C94E50782
:100070000C94E5070C94E5070C94E5070C94E50750
:100080000C94E5070C94E5070C94E5070C94E50740
:100090000C94E5070C94E5070C94E5070C945823A1
:1000A0000C94E5070C94E5070C94E5070C94E50720
:1000B0000C94E5070C94E5070C94E5070C94E50710
:1000C0000C94E5070C94E5070C94E5070C94E50700
:1000D0000C94E5070C94E5070C94E5070C94E507F0
:1000E0000C94E50707634236B79BD8A71A396856C0
:1000F00018AEBAAB558C1D3CB7CC5763BD6DEDFD4A
:10010000753EF6177231BF000000803F0800000006
:10011000BE922449123EABAAAA2ABECDCCCC4C3EFC
:1001200000000080BEABAAAAAA3E00000000BF00EB
:100130000000803F0000000000084178D3BB4387E7
:10014000D1133D190E3CC3BD4282AD2B3E68EC82FB
:1001500076BED98FE1A93E4C80EFFFBE01C4FF7F80
:100160003F00000000000C943D090C9400190C9411
:1001700038200C9419530C94610F0C9482090C9440
:100180005C090C9406430C944E0F0C94FC2E0C94BA
:10019000642A0C94090A0C946F530C9476300C94D6
:1001A00065130C94870D0C948A120C9478090C94A6
:1001B00052090C94B3120C94B4110C94E60D0C94E7
:1001C00018080C940F130C947E090C9424110C94B1
:1001D0005C3E0C94AF2F0C9474090C940B7D0C9422
:1001E00068130C9443090C9499120C9428300C94C5
:1001F00058090C9457370C9466350C94EC400C94C9
:10020000EE160C9463130C94B04A0C94E0120C9408
:100210003F130C94C42B0C940B350C9455130C9475
:100220003B080C94E8070C9442320C94C43E0C94A6
:1002300027080C94420F0C94E52E0C944B090C9457
:10024000320F0C9411320C94CC350C945B0A0C9444
:10025000A42E0C944D530C940D2C0C94D7310C946B
:10026000450A0C94F5420C9466090C94832E0C9468
:1002700070090C942F130C9481080C94042A0C948C
:100280007B0A0C944F090C94CF520C94692E0C9459
:100290005F0A0C947B0E0C94AC120C94E32B0C9420
:1002A00047090C9461300C94B42A0C9462090C94A4
:1002B0000A0A0C94EC2A0C94663E0C94E9070C9400
:1002C000E7070C94CE080C943A0A0C94EB070C94B4
:1002D000B50C0C9419410C943B350C9459130C94A7
:1002E0005A0F0C949F520C9449080C947D090C945D
:1002F000630A0C945E0E0C94A52A0C94F0520C9494
:100300006A090C94730A0C94240A0C94257D0C94AD
:10031000A1350C94B7530C94200A0C946D110C94D5
:10032000B9310C94413F0C94063000407A10F35AD6
:1003300000A0724E18090010A5D4E80000E8764825
:10034000170000E40B54020000CA9A3B000000E1D1
:10035000F505000080969800000040420F00000064
:10036000A08601000000102700000000E803000044
:1003700000006400000000000A000000000001000E
:10038000000000002C76D888DC674F0823DFC1DF2F
:10039000AE59E1B1B796E5E3E453C63AE651997632
:1003A00096E8E6C28426EB898C9B62ED407C6FFC6C
:1003B000EFBC9C9F40F2BAA56FA5F490055A2AF7AE
:1003C0005C936B6CF9676DC11BFCE0E40D47FEF5B7
:1003D00020E6B500D0ED902E03009435770500801F
:1003E000841E080000204E0A000000C80C3333337E
:1003F000330F986E12831141EF8D2114893BE6551E
:1004000016CFFEE6DB18D1844B381BF77C1D901D00
:10041000A4BBE424203284725E228100C9F124EC62
:10042000A1E53D27CDCCCC3D0AD7233C17B7D13829
:1004300077CC2B329595E6241FB14F0A0000803F00
:10044000CDCCCC3D6F12833A95BFD6337D1D90261F
:10045000B3CE010C000020410000C84200401C4601
:1004600020BCBE4CCA1B0E5AAEC59D747C3C3E5E81
:100470002B3D3F2F5B5D3B2C2A225C0000010307D4
:100480000F1F3F7F0080C0E0F0F8FCFE000000007E
:10049000003E5B4F5B3E3E6B4F6B3E1C3E7C3E1C0A
:1004A000183C7E3C181C577D571C1C5E7F5E1C0050
:1004B000183C1800FFE7C3E7FF0018241800FFE707
:1004C000DBE7FF30483A060E2629792926407F05CA
:1004D0000507407F05253F5A3CE73C5A7F3E1C1CE0
:1004E00008081C1C3E7F14227F22145F5F005F5FA0
:1004F00006097F017F006689956A6060606060948C
:10050000A2FFA29408047E040810207E2010080890
:100510002A1C08081C2A08081E101010100C1E0C9B
:100520001E0C30383E3830060E3E0E06000000002D
:100530000000005F00000007000700147F147F1414
:10054000242A7F2A12231308646236495620500059
:1005500008070300001C2241000041221C002A1C45
:100560007F1C2A08083E0808008070300008080830
:100570000808000060600020100804023E51494550
:100580003E00427F400072494949462141494D336E
:100590001814127F1027454545393C4A49493141D5
:1005A000211109073649494936464949291E0000A3
:1005B00014000000403400000008142241141414F8
:1005C0001414004122140802015909063E415D59E4
:1005D0004E7C1211127C7F494949363E41414122ED
:1005E0007F4141413E7F494949417F090909013E17
:1005F000414151737F0808087F00417F410020403E
:10060000413F017F081422417F404040407F021C4F
:10061000027F7F0408107F3E4141413E7F09090966
:10062000063E4151215E7F09192946264949493232
:1006300003017F01033F4040403F1F2040201F3FF8
:100640004038403F6314081463030478040361597D
:10065000494D43007F4141410204081020004141BF
:10066000417F04020102044040404040000307086B
:100670000020545478407F28444438384444442867
:10068000384444287F385454541800087E0902180E
:10069000A4A49C787F0804047800447D4000204096
:1006A000403D007F1028440000417F40007C0478DA
:1006B00004787C080404783844444438FC18242422
:1006C0001818242418FC7C080404084854545424A2
:1006D00004043F44243C4040207C1C2040201C3C1F
:1006E0004030403C44281028444C9090907C446416
:1006F000544C4400083641000000770000004136A9
:10070000080002010204023C2623263C1EA1A1612E
:10071000123A4040207A3854545559215555794160
:100720002254547842215554784020545579400C35
:100730001E52721239555555593954545459395518
:100740005454580000457C410002457D420001455B
:100750007C407D1211127DF0282528F07C545545EF
:10076000002054547C547C0A097F4932494949325B
:100770003A4444443A324A4848303A4141217A3A6C
:1007800042402078009DA0A07D3D4242423D3D4038
:1007900040403D3C24FF2424487E4943662B2FFCE7
:1007A0002F2BFF0929F620C0887E09032054547995
:1007B000410000447D413048484A32384040227A66
:1007C000007A0A0A727D0D19317D2629292F2826E3
:1007D0002929292630484D402038080808080808EB
:1007E0000808382F10C8ACBA2F102834FA00007B44
:1007F000000008142A142222142A14085500550057
:1008000055AA55AA55AAFF55FF55FF000000FF0045
:10081000101010FF00141414FF001010FF00FF1040
:1008200010F010F0141414FC001414F700FF000072
:10083000FF00FF1414F404FC141417101F10101FF1
:10084000101F1414141F00101010F0000000001FDF
:10085000101010101F10101010F010000000FF10EA
:100860001010101010101010FF10000000FF1400E6
:1008700000FF00FF00001F10170000FC04F4141418
:100880001710171414F404F40000FF00F7141414E4
:1008900014141414F700F7141414171410101F1064
:1008A0001F141414F4141010F010F000001F101F87
:1008B0000000001F14000000FC140000F010F010F5
:1008C00010FF10FF141414FF141010101F0000006C
:1008D00000F010FFFFFFFFFFF0F0F0F0F0FFFFFF70
:1008E0000000000000FFFF0F0F0F0F0F38444438C7
:1008F00044FC4A4A4A347E02020606027E027E0216
:1009000063554941633844443C04407E201E200620
:10091000027E020299A5E7A5991C2A492A1C4C725D
:1009200001724C304A4D4D303048784830BC625AE4
:10093000463D3E494949007E0101017E2A2A2A2A74
:100940002A44445F444440514A444040444A514050
:100950000000FF0103E080FF000008086B6B083611
:1009600012362436060F090F060000181800000082
:100970001010003040FF0101001F01011E00191D71
:100980001712003C3C3C3C0000000000000021002D
:10099000240027002A002D00300033000101000050
:1009A000040107010A0100000A0B02090C0D0E08E0
:1009B0000703040100000000000000000000000028
:1009C0000000000000000000000000000000000027
:1009D00000001211100000000000000000000000E4
:1009E000000000000000000000000000DB40A4A6A2
:1009F0002EAF2000A1C8D300408DAED580A8000046
:100A00002200250028002B002E00310034000201B6
:100A10000000050108010B0100006000000000005B
:100A2000000000000000000000E0000000000000E6
:100A30000000000000000001E000000000000000D5
:100A400000000000000001F00000000000000000B5
:100A5000000000000003F0000000000000000000A3
:100A60000000000007F0000000000000000000008F
:100A700000000007F8000000000000000000000077
:100A800000000FF800000003C0007E000001E0003D
:100A90007F0FF800000003C000FE000001E000FF2F
:100AA000EFF800000003C000FE000001E000FFFFBF
:100AB000F800000003C000F00000000F007FFE7F80
:100AC000C0000003C000F00000000F003FFE7FF8F0
:100AD0003FF1FBCFFCFEF3BC3DEFE01FFE7FFF7F4D
:100AE000FBFFDFFEFEFFBC3DEFE01FC6FFFF7FFB0D
:100AF000FFDFFEFEFFBC3DEFE00FE3C7FE787BC3E8
:100B0000DE1EF0FFBC3DEF0007FF87FC787BC3DEF5
:100B10001EF0F83C3DEF0001FFFFF0007BC3C01E5C
:100B2000F0F03C3DEF0001F37FE03FFBC3CFFEF070
:100B3000F03C3DEF0003E33F807FFBC3DFFEF0F0BE
:100B40003C3DEF0007E73C00787BC3DE1EF0F03C45
:100B50003DEF0007FFBE00787BC3DE1EF0F03C3D9A
:100B6000EF0007FFFE00787BC3DE1EF0F03C3DEF98
:100B7000000FFFFE007FFBFFDFFEF0F03FFDEFE028
:100B80000FFFFF007FFBFFDFFEF0F03FFDEFE00F08
:100B9000F9FF003E79F9CF9EF0F01F3DE7E01FF12D
:100BA000FF0000000000000000000000001F80FFA8
:100BB000007FFFFFFFFFFFFFFFFFFFE01C007F0044
:100BC0007FFFFFFFFEB46D888D18E000001F007FDF
:100BD000FFFFFFFE95AD7DB577E000000F007FFFC2
:100BE000FFFFFEA5AD9D8D19E0000006007FFFFF11
:100BF000FFFEB5ADEDB57EE0000000000001800015
:100C00000000000000000000038000000000000061
:100C100000000007C000000000000000000007C046
:100C20000000000000000000000FC00000000000F5
:100C3000000000001FE00000000000000000001F96
:100C4000E00000000000000000003FE000000000A5
:100C500000000000003FF000000000000000000065
:100C60007FF0000000000000001FF87FF00000008F
:100C7000000000003FFE7FF0000000000000003F89
:100C8000FF7FF0000000000000001FFFFBE00000FD
:100C900000000000000FFFF9FFC00000000000008E
:100CA0000FFFF9FFF800000000000007FFF1FFFF51
:100CB00000000000000003FC73FFFF800000000044
:100CC0000001FE3FFFFF80000000000000FF1E0F3C
:100CD000FF000000000000007FFE1FFC000000007D
:100CE0000000003FFFFFF8000000000000000FDFE1
:100CF000FFE0000000000000001F19FFC00000001E
:100D0000000000003F3CFF00000000000000007EEB
:100D10007CF800000000000000007FFE7C00000066
:100D20000000000000FFFFFC0000000000000000C9
:100D3000FFFFFE0000000000000000FFFFFE0000BB
:100D4000000000000001FFEFFE00000000000000B6
:100D500001FFCFFE0000000000000003FF07FE00BF
:100D600000000000000003FC07FE0000000000007F
:100D70000003F003FE00000000000000018000FE00
:100D8000000000000000000000007E0000000000E5
:100D900000000000003E0000000000000000000015
:100DA0000C000000000000078000FC000003C000F1
:100DB0000000078001FC000003C000000007800164
:100DC000FC000003C0000000078001E00000001EDE
:100DD000000000078001E00000001E007FE3F79F95
:100DE000F9FDE7787BDFC0FFF7FFBFFDFDFF787BF4
:100DF000DFC0FFF7FFBFFDFDFF787BDFC0F0F787A7
:100E0000BC3DE1FF787BDE00F0F787BC3DE1F07888
:100E10007BDE0000F787803DE1E0787BDE007FF736
:100E2000879FFDE1E0787BDE00FFF787BFFDE1E013
:100E3000787BDE00F0F787BC3DE1E0787BDE00F0F8
:100E4000F787BC3DE1E0787BDE00F0F787BC3DE151
:100E5000E0787BDE00FFF7FFBFFDE1E07FFBDFC056
:100E6000FFF7FFBFFDE1E07FFBDFC07CF3F39F3DB9
:100E7000E1E03E7BCFC00000000000000000000069
:100E800000FFFFFFFFFFFFFFFFFFFFC0FFFFFFFFB0
:100E9000FD68DB111A31C0FFFFFFFFFD2B5AFB6A13
:100EA000EFC0FFFFFFFFFD4B5B3B1A33C0FFFFFFAF
:100EB000FFFD6B5BDB6AFDC02200FF21000000200C
:100EC000002300260029002C002F00320000010022
:100ED00000030106010901050505050705080808C5
:100EE00008020202020A0A080804040404010101BB
:100EF00001010101010303030303030303040707C3
:100F0000070C0C0C0C0C0C0C0C0202020206060660
:100F100006060606060B0B0B0B0B0B0B0B01021048
:100F20002020080810204010204080020102010803
:100F300004020101020408102040808040201008B3
:100F4000040201800402018040201008040201080C
:100F5000040201010204081020408001020408106C
:100F600020408000257D0B7D11241FBECFEFD1E2F4
:100F7000DEBFCDBF00E00CBF17E0A0E0B2E0E4E6CA
:100F8000F4E101E00BBF02C007900D92A836B10753
:100F9000D9F721E1A8E6B7E001C01D92A33AB20754
:100FA000E1F717E0C3EBD7E000E006C021970109A5
:100FB000802FFE010E947287C23BD10780E00807A4
:100FC000A9F70E94FA690C94208A0C9400000895F5
:100FD000089508950895AF92BF92CF92DF92EF9255
:100FE000FF920F931F93CF93DF936C017B018B01D3
:100FF000040F151FEB015E01AE18BF08C017D10723
:1010000059F06991D601ED91FC910190F081E02DAC
:10101000C6011995892B79F7C501DF91CF911F91F1
:101020000F91FF90EF90DF90CF90BF90AF90089519
:10103000FC01538D448D252F30E0842F90E0821BDE
:10104000930B541710F0CF96089501970895FC0163
:10105000918D828D981761F0A28DAE0FBF2FB11DBB
:101060005D968C91928D9F5F9F73928F90E0089513
:101070008FEF9FEF0895FC01918D828D981731F0CD
:10108000828DE80FF11D858D90E008958FEF9FEF21
:101090000895FC01918D228D892F90E0805C9F4FF7
:1010A000821B91098F739927089582E99AE00E9423
:1010B000490821E0892B09F420E0822F0895FC01E2
:1010C000A48DA80FB92FB11DA35ABF4F2C91848DA9
:1010D00090E001968F739927848FA689B7892C9306
:1010E000A089B1898C91837080648C93938D848D59
:1010F000981306C00288F389E02D80818F7D80835C
:101100000895EF92FF920F931F93CF93DF93EC011B
:1011100081E0888F9B8D8C8D98131AC0E889F9899E
:10112000808185FF15C09FB7F894EE89FF896083A1
:10113000E889F98980818370806480839FBF81E022
:1011400090E0DF91CF911F910F91FF90EF90089564
:10115000F62E0B8D10E00F5F1F4F0F731127E02E3F
:101160008C8D8E110CC00FB607FCFACFE889F98977
:10117000808185FFF5CFCE010E945F08F1CFEB8D16
:10118000EC0FFD2FF11DE35AFF4FF0829FB7F8944B
:101190000B8FEA89FB8980818062CFCFCF93DF9369
:1011A000EC01888D8823B9F0AA89BB89E889F9897F
:1011B0008C9185FD03C0808186FD0DC00FB607FCB4
:1011C000F7CF8C9185FFF2CF808185FFEDCFCE01E7
:1011D0000E945F08E9CFDF91CF91089580E090E011
:1011E000892B29F00E94550881110E94000080E09F
:1011F00090E0892B49F080E090E0892B29F00E9453
:10120000000081110E94000080E090E0892B49F0ED
:1012100080E090E0892B29F00E94000081110E945B
:10122000000080E090E0892B49F080E090E0892B7D
:1012300029F00E94000081110C9400000895815053
:10124000823108F05AC0E82FF0E08827E55DF64FBC
:101250008F4F0C9472874B094F093D094309470989
:101260007D09520958095C09620966096A09700911
:1012700074097D0978097E098209809180008F7741
:10128000809380000895809180008F7DF9CF8091B8
:101290008000877FF5CF84B58F7784BD089584B5AE
:1012A0008F7DFBCF8091B0008F778093B000089541
:1012B0008091B0008F7DF9CF809190008F778093DF
:1012C00090000895809190008F7DF9CF80919000DB
:1012D000877FF5CF8091A0008F778093A00008953D
:1012E0008091A0008F7DF9CF8091A000877FF5CFFE
:1012F000809120018F7780932001089580912001B3
:101300008F7DF9CF80912001877FF5CFCF93DF9339
:10131000282F30E0F901EA55F64F8491F901E35E98
:10132000F04FD491F901E952F14FC491CC23A1F0CF
:1013300081110E941F09EC2FF0E0EE0FFF1FE35414
:10134000F14FA591B491EC91ED2381E090E009F487
:1013500080E0DF91CF91089580E090E0FACF86336E
:1013600008F0865320917B00982F9870277F922B4E
:1013700090937B008770806480937C0080917A00DA
:10138000806480937A0080917A0086FDFCCF809102
:101390007800909179000895FC0120812EBD9B0179
:1013A0002150310941F051810DB407FEFDCF4EB5FA
:1013B0005EBD4193F5CF61507109860F971F0DB443
:1013C00007FEFDCF2EB5FC0120830895E091200893
:1013D000F0912108808190911F08892B80830895C6
:1013E000E0912008F0912108908180911F0880955C
:1013F00089238083089590E020918808233339F46D
:101400000C96982F990F990F990F80E008954896A0
:10141000F8CF0895CF93DF931F92CDB7DEB76983DE
:10142000DC01ED91FC910280F381E02D41E050E080
:10143000BE016F5F7F4F19950F90DF91CF91089597
:10144000FC01818D928D0895CF93DF931F92CDB7CC
:10145000DEB76983DC01ED91FC910280F381E02D20
:1014600041E050E0BE016F5F7F4F19950F90DF9113
:10147000CF910895FC019485FB018485981303C0E6
:1014800081E0983008F080E00895CF93DF931F92B9
:10149000CDB7DEB76983DC01ED91FC910280F38169
:1014A000E02D41E050E0BE016F5F7F4F19950F9036
:1014B000DF91CF910895FC01848595850895FC0105
:1014C00084899589089527E433E0FC0131832083E2
:1014D000FB014089518962897389FC0142835383EE
:1014E000648375830895DC01ED91FC91048CF58D86
:1014F000E02D19940895FC016370668B84819581B9
:1015000026813781613039F0633029F091878087F7
:1015100033872287089531872087938782870895AC
:101520002F923F924F925F926F927F928F929F92F3
:10153000AF92BF92CF92DF92EF92FF920F931F93E1
:10154000CF93DF93CDB7DEB76A970FB6F894DEBFBF
:101550000FBECDBF9A8F898F7A8369834A01D22EBD
:1015600018870F833701BC2CDC0159962D913C91D3
:101570005A972115310509F015C118968D919C9146
:101580001997681779070CF0D7C11A968D919C911D
:10159000481759070CF0D0C14C2C512CB6E0CB9E0B
:1015A000600D711D11247C876B87161617060CF0D1
:1015B000C3C1EA2DF0E0FA87E98793E0EE0FFF1F41
:1015C0009A95E1F7F88BEF87CF01840F951F1816D6
:1015D00019060CF0B1C1A98DBA8D58968C91811164
:1015E00004C0BFEABD1508F4D394A98DBA8DED915E
:1015F000FC9111970284F385E02DCD011995B5E09A
:10160000DB9EC0011124E981FA81FC83EB83312C3C
:10161000212C9C0124573B4F388F2F8B4A2D50E0B3
:101620005E8B4D8BEF89F88DE20DF31D44919E8208
:101630008D82D12CC12C69817A81620D731D7A8BC8
:10164000698B842F90E09C8B8B8BE98DFA8DA08128
:10165000B18140FF82C0F1E0BF126FC0AF126DC018
:101660001C96ED91FC912F813885A4014C0D5D1DD8
:1016700069897A89898D9A8D1995EB89FC89F59507
:10168000E7954E2F5FEFC51AD50A6D817E818D8952
:101690009E89680F791F7E836D8398E0C916D104F7
:1016A00081F6AFEF2A1A3A0AEB81FC81E40DF51DB1
:1016B000FC83EB83F5E02F16310409F0B3CF2F81C3
:1016C000388526153705B9F0A98DBA8DED91FC91B5
:1016D000B1E0BB1257C0AB1255C069817A816B5F14
:1016E0007F4F0088F189E02D830128E030E0A401DC
:1016F000898D9A8D1995A98DBA8DED91FC911197CF
:101700000688F789E02DCD016A960FB6F894DEBF02
:101710000FBECDBFDF91CF911F910F91FF90EF9042
:10172000DF90CF90BF90AF909F908F907F906F9001
:101730005F904F903F902F9019941E96ED91FC91E1
:10174000EF80F88409851A8592014D815E816B8155
:101750007C81898D9A8D199590CF2F81388526159A
:10176000370509F48ACF31E0B31207C0A31205C0D0
:101770001C96ED91FC91930178CF1E96ED91FC9112
:101780007301E0CF6B857C85641975090684F78544
:10179000E02D73010F8518899201A401898D9A8D1E
:1017A0001995A9CFF90134969491329745915491A6
:1017B000D91AB7E0DB9E400D511D1124F901259186
:1017C00034913C8B2B8BFA0125903490FA013296A0
:1017D000749031963491398B32966490319644905E
:1017E00041E04C1518F04A1508F07FC0662D062C14
:1017F000000C770B7C836B83842D042C000C990BDD
:101800009E838D83A98DBA8DED91FC9111970284F1
:10181000F385E02DCD011995512CD12CC12CEA2D49
:10182000F0E0FA87E9872B2D30E03C872B87A40175
:10183000440D511D47FC5A95588F4F8B69817A8111
:10184000660D711D67FC7A957E876D877989C7164D
:1018500008F051CF2C2D30E04D815E81420F531F97
:10186000A985BA854A9FC0014B9F900D5A9F900D44
:101870001124FC01E80DF91DF88BEF87852D612CF3
:101880004F89588D420F531F5E8B4D8B671408F0A4
:1018900050C044244394480E877041F4C10101961E
:1018A000EB89FC89E20DF31DD4901C01D7FE19C011
:1018B000A98DBA8DED91FC91662D70E0B1E0BB125F
:1018C00019C0AB1217C02D853E85620F731F0484AB
:1018D000F585E02D2F8138854D895E89898D9A8D1A
:1018E0001995DD0C6394842DD1CF1E821D821C823C
:1018F0001B8288CF4B815C81640F751FAB85BC85D3
:101900006A9FC0016B9F900D7A9F900D1124698191
:101910007A81680F791F0684F785E02DEF80F884BF
:1019200009851A859D014F855889898D9A8D19954C
:10193000D8CF570CC3948ACF6A960FB6F894DEBFFF
:101940000FBECDBFDF91CF911F910F91FF90EF9010
:10195000DF90CF90BF90AF909F908F907F906F90CF
:101960005F904F903F902F9008958F929F92AF92EB
:10197000CF92EF92FF920F931F93CF93DF93EC01DF
:10198000262F898D9A8D009709F051C06A30D1F4C5
:101990001D861C868D8948E0849F900111248E85C8
:1019A0009F85820F931F9F878E8781E090E0DF9154
:1019B000CF911F910F91FF90EF90CF90AF909F909C
:1019C0008F9008956D3089F3CC88AD888F898823F6
:1019D000C1F08C859D8536E0C39E800D911D11243C
:1019E000488559854817590764F44E855F851D86DB
:1019F0001C8638E0A39EC0011124840F951F9F8789
:101A00008E87EA88FB88088919894E855F856C85F1
:101A10007D85CE010E94900A2C898C859D8546E0AB
:101A2000249F800D911D11249D878C87BECF6A3025
:101A300069F41D861C86FC013896E4912D898E85FB
:101A40009F85E29F800D911D1124ADCF6D3009F46B
:101A5000ACCFFC0134963491631708F4A6CF3296CC
:101A6000E491E61708F4A1CFFC013296859094909A
:101A7000462F431B342F47E0349F800C911C1124C8
:101A8000F401329634913196E4913323A9F1EE2397
:101A900099F1CC88F4013596E491AD884F894423BF
:101AA00001F10E2E000CFF0BE30FF11DCE9EA001E5
:101AB000CF9E500D11246C857D85460F571F68857C
:101AC0007985641775076CF44E855F851D861C86C5
:101AD000FC013896E491AE9E400D511D11245F87A4
:101AE0004E87EA88FB88088919894E855F856C8551
:101AF0007D85CE010E94900AF4013496E4912C89F0
:101B00008C859D85E29F800D911D11248DCF6F9254
:101B10007F928F929F92AF92BF92CF92DF92EF927D
:101B2000FF920F931F93CF93DF93EC016B015A0148
:101B300039014801E881F9810284F385E02D199586
:101B4000E881F9810288F389E02D87019301A501DD
:101B5000B601CE011995A501480D591D41505109F5
:101B6000E881F9810288F389E02D9301B601CE0165
:101B70001995E881F9810088F189E02D9401A5018A
:101B8000B601CE011995C60CD71CB601615071097A
:101B9000E881F9810088F189E02D9401A501CE0149
:101BA0001995E881F9810688F789E02DCE01DF914A
:101BB000CF911F910F91FF90EF90DF90CF90BF904A
:101BC000AF909F908F907F906F9019946F927F92BB
:101BD0008F929F92AF92BF92CF92DF92EF92FF923D
:101BE0000F931F93CF93DF935C01EB016A014901CF
:101BF00038018701DC01ED91FC916217730719F53B
:101C0000641675062CF0962D872D3A01C92ED82E14
:101C10009601261937092F5F3F4F048CF58DE02D73
:101C2000A301BE01C5011995DF91CF911F910F91BD
:101C3000FF90EF90DF90CF90BF90AF909F908F90EC
:101C40007F906F9008954615570591F42617370732
:101C500024F0892D4B01C22FD82F9E012819390954
:101C60002F5F3F4F068CF78DE02DA601B401DACF30
:101C70000284F385E02D1995D501ED91FC9104883E
:101C8000F589E02D83019401A601BE01C5011995D6
:101C9000D501ED91FC910688F789E02DC501DF9112
:101CA000CF911F910F91FF90EF90DF90CF90BF9059
:101CB000AF909F908F907F906F901994EF92FF92CA
:101CC0000F931F93DC011A960D911C911B97189688
:101CD0002D913C911997ED91FC9100A0F1A1E02D7F
:101CE0007B0150E040E070E060E019951F910F919A
:101CF000FF90EF9008954F925F926F927F928F9234
:101D00009F92AF92BF92CF92DF92EF92FF920F938A
:101D10001F93CF93DF936C012B015A0139014801C6
:101D2000DC01ED91FC910284F385E02D1995E2012F
:101D3000640C751CD601ED91FC91C615D7055CF4B9
:101D40000088F189E02D87019401A501BE01C6013B
:101D500019952196EFCF0688F789E02DC601DF910E
:101D6000CF911F910F91FF90EF90DF90CF90BF9098
:101D7000AF909F908F907F906F905F904F9019944D
:101D80008F929F92AF92BF92CF92DF92EF92FF928B
:101D90000F931F93CF93DF93EC015B014A0169011D
:101DA000E881F9810284F385E02D199595012C0DC8
:101DB0003D1D21503109E881F9810488F589E02D24
:101DC00078018401A401B501CE011995E881F9815A
:101DD0000688F789E02DCE01DF91CF911F910F91F9
:101DE000FF90EF90DF90CF90BF90AF909F908F903B
:101DF00019948F929F92AF92BF92CF92DF92EF92FF
:101E0000FF920F931F93CF93DF93EC015B014A0185
:101E100069017801E881F9810284F385E02D199543
:101E2000C80CD91C860101501109E881F981048888
:101E3000F589E02D9501A401B501CE011995E88140
:101E4000F9810688F789E02DCE01DF91CF911F91AE
:101E50000F91FF90EF90DF90CF90BF90AF909F9049
:101E60008F901994EF92FF920F931F93DC01ED91E5
:101E7000FC9100A0F1A1E02D19951F910F91FF9009
:101E8000EF9008950F931F93DC01ED91FC91068C68
:101E9000F78DE02D19951F910F9108950F931F93C2
:101EA000DC01ED91FC91048CF58DE02D19951F91CD
:101EB0000F910895DC01ED91FC910084F185E02DF6
:101EC00019942F923F924F925F926F927F928F92CE
:101ED0009F92AF92BF92CF92DF92EF92FF920F93B9
:101EE0001F93CF93DF9300D000D0CDB7DEB73C0176
:101EF0006A013E832D83FC82EB825801A41AB50A45
:101F0000B7FE03C0B194A194B1088D809E80861A5B
:101F1000970A97FE03C09194819491088A149B04B8
:101F20005CF0902F812F0D811E819D838E839C2DCF
:101F30008D2D6B01692F782F0C151D055CF09D818F
:101F40008E817E836D83692F782F902F812F86015C
:101F5000C92ED82E1601201A310A2B012D813E815F
:101F6000421A530A57FE03C051944194510871011B
:101F700037FE03C03FEFE31AF30AF594E7948D812F
:101F80009E81861797075CF5A1E0B0E0BA83A9832C
:101F9000C016D1064CF1D301ED91FC910484F58576
:101FA000E02D2B813C81A8016D817E818A149B04E8
:101FB0001CF04D815E81B801C3011995E418F50844
:101FC000F7FE0AC02D813E8189819A81280F391F31
:101FD0003E832D83E20CF31C0F5F1F4FD9CF2FEFF1
:101FE0003FEF3A832983D4CF26960FB6F894DEBF0D
:101FF0000FBECDBFDF91CF911F910F91FF90EF905A
:10200000DF90CF90BF90AF909F908F907F906F9018
:102010005F904F903F902F900895EF92FF920F9313
:102020001F93CF93DF93EC01EC80FD806E157F054D
:102030000CF070C057FF04C0240F351F50E040E083
:102040008E819F81FA01E20FF31F8E179F071CF408
:102050009C01241B350B121613060CF05BC0922F4B
:10206000842F8695869586958E9DD0018F9DB00D87
:1020700011246A0F7B1FAF8DB8A1A60FB71F477041
:1020800049F188E0841B482F682F70E0FB01EC5772
:10209000FB4FE491281708F063C0621B71092FEF12
:1020A00030E002C0359527956A95E2F7E2230130CA
:1020B000110539F0B0F10230110561F58C91E82776
:1020C00002C08C91E82BEC93941720F12C813D8178
:1020D000A20FB31FE92FE41BE83078F0023011059E
:1020E00021F58E2F9C9190959C932C813D81A20F80
:1020F000B31F88508830B0F7E770EE2359F0F0E056
:10210000E458FB4FE49101301105F9F010F1023071
:10211000110519F1DF91CF911F910F91FF90EF9071
:102120000895E0958C91E823CECF81E0011511054B
:1021300009F480E081959E2F8C932C813D81A20F24
:10214000B31F98509830C0F7D7CF8C91E82BEC9301
:10215000E1CFE0958C91E823FACF8C91E827F7CF77
:102160000130110509F4ADCFE0F20230110509F498
:10217000A5CFAE0DBF1DAECF0F931F93CF93DF93AF
:1021800077FF04C0260F371F70E060E0DC01149673
:10219000CD91DC91FB01E20FF31FCE17DF071CF49A
:1021A0009E01261B370B121613064CF5FA0157FD3C
:1021B0003796A3E0F595E795AA95E1F7EC9FD00156
:1021C000ED9FB00DFC9FB00D11246A0F7B1FDC0149
:1021D0005F96ED91FC91E60FF71F4770552781E060
:1021E00090E001C0880F4A95EAF7482F01301105A9
:1021F00059F0A8F02E0F3F1F02301105E1F0DF91DA
:10220000CF911F910F9108952E0F3F1FE217F307F3
:10221000B1F38191DF011197842B8C93F7CF8095D7
:102220002E0F3F1FE217F30751F39191DF01119732
:1022300098239C93F7CFE217F30709F38191DF010D
:10224000119784278C93F7CF0F931F93FA01DC012A
:1022500056964C9156974230E9F04330A1F1413007
:1022600061F514964D915C91DA01AE1BBF0BFD0137
:10227000E21BF30B77FD0BC0DC0116964D915C91D0
:102280006417750724F4AB01BF010E94BC101F91B5
:102290000F91089514964D915C91DA01A61BB70B2E
:1022A000BD0161507109DC0116964D915C91DA0116
:1022B000AE1BBF0BFD01E21BF30B77FDE8CFAF01B7
:1022C0000E940D10E4CF16964D915C91DA01A61B89
:1022D000B70BBD0161507109CDCF0F931F93FA0168
:1022E000DC0156964C9156974230A9F0433091F15B
:1022F000413019F514964D915C91DA01AE1BBF0B7C
:10230000FD013197F7FD04C0AB01BF010E940D1024
:102310001F910F91089514964D915C91DA01A61BBF
:10232000B70BBD01DC0116964D915C91DA01AE1B35
:10233000BF0BFD013197621B730BF7FDE9CFDC0189
:1023400016964D915C91E417F50714F7AF010E94C2
:10235000BC10DECF16964D915C91DA01A61BB70B2F
:10236000BD01621B730BCECFFC0177FD64C080857D
:102370009185681779070CF05EC057FD5CC08285B7
:102380009385481759070CF056C086898230B1F002
:10239000833029F1813041F484819581841B950B30
:1023A000AB01BC01615071092130310509F108F41C
:1023B00043C02230310509F463C0089584819581BA
:1023C000DC01A61BB70BBD016150710986819781A5
:1023D000DC01A41BB50BAD0141505109E5CF86814D
:1023E0009781861B970BBA01AC0141505109DCCF94
:1023F000CA0157FD0796A3E095958795AA95E1F741
:10240000A481B5818A9F90018B9F300D9A9F300DDA
:102410001124620F731F078CF0A1E02DE60FF71F48
:102420004770552721E030E001C0220F4A95EAF7B6
:102430008081822B80830895CA0157FD079633E07F
:10244000959587953A95E1F7A481B5818A9F90018A
:102450008B9F300D9A9F300D1124620F731F078CD4
:10246000F0A1E02DE60FF71F4770552781E090E0BF
:1024700001C0880F4A95EAF7809590818923DACFC9
:10248000CA0157FD079623E0959587952A95E1F7B0
:10249000A481B5818A9F90018B9F300D9A9F300D4A
:1024A0001124620F731F078CF0A1E02DE60FF71FB8
:1024B0004770552721E030E001C0220F4A95EAF726
:1024C00080818227B7CF2091D407260F3327331F6F
:1024D00021323105ECF42091F807FC0190E080E016
:1024E000243069F082E00895A091D4072191AC01D5
:1024F0004C54584FA40FB52FB11D2C93019686173D
:1025000098F38091D407680F6093D40780E0089512
:1025100081E00895E091320880913108E81730F4A5
:10252000F0E0E257F84F808190E008958FEF9FEF41
:10253000089590913208809131082FEF3FEF98175E
:1025400048F4E92FF0E0E257F84F208130E09F5F38
:1025500090933208C9010895809131089091320812
:10256000891B990B0895CF92DF92EF92FF920F9300
:102570001F93CF93DF937C01CB018A012091910AB5
:10258000222389F0EB016B01C40ED51ECC15DD05AD
:1025900069F06991D701ED91FC910190F081E02DF6
:1025A000C7011995F3CF642F0E946312C801DF9110
:1025B000CF911F910F91FF90EF90DF90CF900895F2
:1025C000CF93DF931F92CDB7DEB769832091910A35
:1025D0002223F9F020918E0A203258F021E030E0D9
:1025E000FC013383228390E080E00F90DF91CF9154
:1025F000089580918F0AE82FF0E0E259F84F998111
:1026000090838F5F80938F0A80938E0A81E090E0A1
:10261000ECCF61E0CE0101960E946312F7CFDC019E
:102620005996ED91FC913097B9F083899489A589E9
:10263000B6894285538564857585841B950BA60BE9
:10264000B70B811520E89207A105B10538F08FEF8F
:102650009FE7A0E0B0E0089590E080E00895DC01FD
:1026600059968D919C91009739F0DC01ED91FC9188
:102670000480F581E02D199490E080E00895CF93D7
:10268000DF931F92CDB7DEB76983DC01ED91FC913A
:102690000280F381E02D41E050E0BE016F5F7F4F8B
:1026A00019950F90DF91CF910895FC01768765878A
:1026B0000895DC01ED91FC91068CF78DE02D1995C4
:1026C00091E089270895862F089581E0862708954F
:1026D00021E0FC018485883008F020E0822F0895F5
:1026E000CF92DF92EF92FF92CF93DF93EC0128819C
:1026F00039812130310559F030F12230310591F026
:102700002330310559F160E070E0CB0104C06A85E7
:102710007B858C859D85DF91CF91FF90EF90DF9039
:10272000CF90089520E034E244E759E46A817B8148
:102730008C819D810E94CE842A853B854C855D8558
:102740000E943D83E8CF2A853B854C855D856A895B
:102750007B898C899D890E946184DDCF2A853B8598
:102760004C855D856A897B898C899D890E946184FD
:102770006B017C0120E034E244E759E46A817B810B
:102780008C819D810E94CE849B01AC01C701B60162
:102790000E94CE84C0CF8F929F92AF92BF92CF9271
:1027A000DF92EF92FF927C01825A9F4F0E9470133A
:1027B0004B015C01C70182960E9470139B01AC0122
:1027C0000E943D839B01AC01C501B4010E9461845C
:1027D0006B017C0120E030E0A9010E94D78287FFD5
:1027E00003C0C12CD12C7601C701B601FF90EF9038
:1027F000DF90CF90BF90AF909F908F900895FC0195
:10280000892B69F0948190786115710519F494838E
:1028100081E008959460948371836083F9CF80E0B0
:102820000895CF93DF93EC0188819981DC01ED91CC
:10283000FC910190F081E02D19952A813B81820F56
:10284000931F9B838A83DF91CF9108952F923F92AC
:102850004F925F926F927F928F929F92AF92BF92B0
:10286000CF92DF92EF92FF920F931F93CF93DF935C
:1028700000D000D0CDB7DEB71C014A015B0186E075
:10288000D1011A968C9320E836E948E15BE4CB014C
:10289000B4010E94D78587FD7DC004E110E060E2AD
:1028A000462E512C1E821D82F801EC5AFB4F659179
:1028B000759185919491A50194010E94D782181673
:1028C0009CF0F801EC5DFB4F2591359145915491B9
:1028D000C501B4010E943D834B015C01ED81FE8185
:1028E000E40DF51DFE83ED835594479404501109C2
:1028F0000C3FFFEF1F07C1F677247A9420E030E009
:10290000A901C501B4010E94D78518160CF04AC070
:102910002CEA35EC47E257E3C501B4010E94D782A7
:1029200018160CF43FC0272D34E023028001112437
:10293000F12CE12CC801845C9B4F6C010C5A1B4F9D
:102940009FEF791679F1F601EE0DFF1D65917591F6
:1029500085919491A50194010E94D78518169CF445
:10296000F801EE0DFF1D2591359145915491C5015A
:10297000B4010E943D834B015C01AD81BE81A4196D
:10298000B509BE83AD83559447947A94B4E0EB1AAD
:10299000F108D6CF30E2432E512C45E0742E1E8232
:1029A0001D82ACCF2D813E81F10131872087C50189
:1029B000B4010E94818569837A838B839C83D101D2
:1029C0006D937D938D939C9313972B013C0190E421
:1029D000C92E92E4D92E9FE0E92EF12CBAE04B16D5
:1029E000510461047104C8F0C701B6012AE030E067
:1029F00040E050E00E94308469017A01F101828553
:102A000081508287C301B2012AE030E040E050E00B
:102A10000E94308429013A01E1CF69817A818B815A
:102A20009C810E94DC829B01AC01C501B4010E9423
:102A300061844B015C01C701B6010E94DC829B01ED
:102A4000AC01C501B4010E943D832B013C010E94F1
:102A500081854B015C010E94DC829B01AC01C301BA
:102A6000B2010E9461849B01AC010E9462840E94B9
:102A70008185860E971EA81EB91E8C149D04AE0477
:102A8000BF0430F5D10114968D929D92AD92BC9207
:102A900017978AE0C82ED12CE12CF12CD101149685
:102AA0006D917D918D919C911797A70196010E9440
:102AB0003084672B682B692B89F5F1018285181604
:102AC0006CF5248335834683578381508287E6CF14
:102AD000F101148215821682178289819A81AB8155
:102AE000BC810196A11DB11D80839183A283B38314
:102AF0002D813E812115310561F20A97A105B105AD
:102B000040F2C90101969187808781E090E0A0E0C2
:102B1000B0E080839183A283B383BBCF26960FB6A8
:102B2000F894DEBF0FBECDBFDF91CF911F910F9103
:102B3000FF90EF90DF90CF90BF90AF909F908F90DD
:102B40007F906F905F904F903F902F900895CF931C
:102B5000DF93EC0188819981DC01ED91FC91028089
:102B6000F381E02D19952A813B81820F931F9B836E
:102B70008A83DF91CF910895EF92FF920F931F9375
:102B8000CF93DF93CDB7DEB766970FB6F894DEBF6D
:102B90000FBECDBF8C01CB01FE0177969F014AE0AD
:102BA000E42EF12CB7010E945E87805D8293CB01F9
:102BB0000097C1F7A9014E1B5F0BBF01C8010E941E
:102BC000A71566960FB6F894DEBF0FBECDBFDF9196
:102BD000CF911F910F91FF90EF9008958F929F9248
:102BE000AF92BF92CF92DF92EF92FF920F931F931B
:102BF000CF93DF93CDB7DEB766970FB6F894DEBFFD
:102C00000FBECDBF6C018E01095E1F4F78018AE0B7
:102C1000882E912CA12CB12CCB01BA01A5019401D5
:102C20000E943084942F852F605DF80162938F019C
:102C3000A901692F782F411551056105710561F7CB
:102C4000A7014E1B5F0BBF01C6010E94A715669628
:102C50000FB6F894DEBF0FBECDBFDF91CF911F91AD
:102C60000F91FF90EF90DF90CF90BF90AF909F902B
:102C70008F900895EF92FF920F931F93CF93DF935E
:102C8000EC017B0162E20E9411148701F80161915D
:102C90008F01662391F0EBE4F3E0F280FF2049F02E
:102CA000329681816813F9CF6CE5CE010E94111430
:102CB0006F2DCE010E941114E9CF62E2CE01DF91A7
:102CC000CF911F910F91FF90EF900C941114FC0184
:102CD0009B01892BD1F0AB01770F660B770B9481A9
:102CE000907837FD08C09860948340835183628355
:102CF000738381E008959A609483709560955095F0
:102D000041955F4F6F4F7F4FF0CF80E00895CF9395
:102D1000FC01892B91F094819F77983029F078F409
:102D2000992359F0963079F4C1E080819181A28194
:102D3000B381892B8A2B8B2B39F4C0E005C09A30E4
:102D400099F39C3021F0C1E08C2FCF910895C1E020
:102D500020E030E0A90160817181828193810E942D
:102D6000D7828111F1CFE9CFFC01892B71F09481D9
:102D7000907896609483862F90E0B0E0A0E0808306
:102D80009183A283B38381E0089580E00895FC01DC
:102D9000248126FF12C0808191816115710579F02F
:102DA000FC01258161507109222339F0F8E02F02DE
:102DB00090011124820F931FF0CF90E080E00895DE
:102DC000FC012581222339F0F8E02F029001112423
:102DD000820F931F089590E080E0089590E080E0D6
:102DE0000895FB0101900020E9F73197AF01461BE0
:102DF000570B0C94A7150F931F93CF938C01C0E032
:102E0000F8018681C81738F46CE573E0C8010E94A8
:102E1000F116CF5FF5CFCF911F910F9108954F928B
:102E20005F926F927F92AF92BF92CF92DF92EF92BA
:102E3000FF920F931F93CF93DF93CDB7DEB76B97BE
:102E40000FB6F894DEBF0FBECDBFFC018B0194819D
:102E50009F77963009F457C168F49230A8F0943007
:102E600008F038C14281538160817181C8010E949C
:102E7000A715DBC09C3009F443C048F4983009F42E
:102E80003DC19A3009F42CC163E673E035C090323D
:102E900009F4E3C09034C1F7E080F1806FE673E09D
:102EA000E114F10449F16BE673E0C8010E94F116E8
:102EB000F80186818F5F8683C8010E94FB16B801E6
:102EC000C7010E940F17C7010E94E0167C016FE541
:102ED00073E0892B11F460E673E0C8010E94F116DB
:102EE000E114F10449F7F801868181508683C80115
:102EF0000E94FB1660E773E0C8010E94F11695C0BE
:102F0000C080D180E280F380A7019601C701B6019D
:102F10000E94D7828111B8CF20E030E0A901C7011B
:102F2000B6010E94D782882379F0A7019601C701D4
:102F3000B6010E9462849B01AC01C701B6010E94E8
:102F4000D782882309F4A0CF20E030E0A901C7018F
:102F5000B6010E94D78287FF08C06DE2C8010E94B7
:102F60001114F7FAF094F7F8F0945E0121E1A20E43
:102F7000B11CB701A601C5010E94261449895A89CE
:102F80006B897C89C8010E94EE15FB8CFF2071F1D2
:102F90006D897E898F89988D6501EF2C2AE0422EFC
:102FA000512C612C712CEA94EFEFEE1659F0A3012D
:102FB00092010E943084605DF60162936F01B90155
:102FC000CA01F1CF8F2D90E0BC0160957095F5019D
:102FD000E81BF90B31978EE2808344275527461B67
:102FE000570B6A0D7B1DC8010E94A715898D9A8D0C
:102FF00097FF0DC068E673E0C8010E94F116698D65
:103000007A8D719561957109C8010E94BC15898DF1
:103010009A8D181619064CF465E6C8010E94111421
:10302000698D7A8DC8010E94BC15F8018281938157
:103030006B960FB6F894DEBF0FBECDBFDF91CF9178
:103040001F910F91FF90EF90DF90CF90BF90AF90C6
:103050007F906F905F904F900895E080F18066E7D9
:1030600073E0E114F10409F447CF62E773E0C801AB
:103070000E94F116F80186818F5F8683C8010E9445
:10308000FB16F70166817781C8010E943A1660EB52
:1030900073E0C8010E94F116B801C7010E940F1722
:1030A000C7010E94E0167C016FE573E0892B11F4E3
:1030B00060E673E0C8010E94F116E114F104F1F634
:1030C000F801868181508683C8010E94FB1667E75C
:1030D00073E012CF60817181C8010E943A16A5CFBA
:1030E000C080D180E280F3806DE2C8010E9411149B
:1030F000B701A601C8010E94EE1597CF408151810A
:1031000062817381F7CF80819181A281B38169E768
:1031100073E0892B8A2B8B2B09F0EECE6EE773E0E0
:10312000EBCE0E949B890F931F93CF93DF938C016B
:10313000EB01FC01808191810097E1F06881798148
:1031400061157105A9F0428153812C813D8142179F
:10315000530770F00E94F0898C819D81F80195835E
:1031600084831D821C82DF91CF911F910F9108955E
:103170000E94318888819981F801918380838A81B6
:103180009B81938382838C819D8195838483198223
:1031900018821B821A82E5CFCF93DF93EC01681768
:1031A000790711F00E949318CE01DF91CF91089515
:1031B0000F931F93CF93DF93EC0188819981009740
:1031C00059F02A813B812617370730F081E0DF91E3
:1031D000CF911F910F9108958B016F5F7F4F0E94D8
:1031E000BA88009759F0998388831B830A832C81BE
:1031F0003D81232B59F7FC011082E8CF80E0E7CF17
:10320000CF92DF92EF92FF920F931F93CF93DF93B2
:10321000CDB7DEB7AF970FB6F894DEBF0FBECDBF08
:103220007C016A0107E413E01A8309831C861B866C
:1032300088EE93E0A0E0B0E08D879E87AF87B88BE3
:1032400083E992E09A878987188F0F8B198E1A8EDF
:103250001B8E1C8E88E089A31BA70AA71CA61DA68F
:103260001EA61FA68091310B9091320BA091330BBB
:10327000B091340B8EA39FA3A8A7B9A78B839C837F
:10328000AD83BE8318861F82AE01465D5F4FCE01BF
:1032900001960E94E95C81309105B1F4D701ED916E
:1032A000FC910488F589E02D1DA30CA38CA59DA598
:1032B000AEA5BFA58EA39FA3A8A7B9A7A601BE01CF
:1032C0006C5D7F4FC7011995AF960FB6F894DEBFBE
:1032D0000FBECDBFDF91CF911F910F91FF90EF9067
:1032E000DF90CF900895CF93DF93DC011496ED919A
:1032F000FC916E177F0728F54115510511F19F01CB
:10330000261B370B4217530708F49A01DB01EC0127
:1033100088819981E21BF30BFD83EC83AF01461B8F
:10332000570B260F371FBC01620F731F8A0F9B1F9D
:103330000E94F789E881F9818C819D81E80FF91F4E
:103340001082DF91CF910895FC01248135816217AD
:10335000730720F480819181009729F410922C0842
:103360008CE298E00895860F971F0895CF93DF931E
:10337000EC01A881B981EB01E881F9811097F1F0A6
:103380003097B1F4EC018C819D81892BC9F08C912F
:1033900090E00BC0DB0114968D919C91892B81F0FC
:1033A000808190E0919581959109DF91CF91089569
:1033B000BF01CD01DF91CF910C94E789309751F790
:1033C00090E080E0F2CFEF92FF920F931F93CF93A4
:1033D000DF936115710541F480E0DF91CF911F917A
:1033E0000F91FF90EF90089541155105B1F07B01C9
:1033F000EC010C811D81040F151FB8010E94D81823
:10340000882351F3288139818C819D81B701820FF6
:10341000931F0E94F0891D830C8381E0DECFCF9340
:10342000DF931F921F92CDB7DEB769831A8241E006
:1034300050E0BE016F5F7F4F0E94E3190F900F9025
:10344000DF91CF910895CF93DF93EC01EAA1FBA127
:10345000E80FF91F1282BC016E5F7F4F61F0FB0124
:1034600001900020E9F73197AF01461B570B888187
:1034700099810E94E3191BA21AA2DF91CF910895AE
:10348000CF93DF93EC018AA19BA19C012F5F3F4F5B
:103490003BA32AA3FE01E80FF91F628302968097DF
:1034A00018F0CE010E94231A8CA19DA101969DA324
:1034B0008CA3DF91CF910895EF92FF920F931F930A
:1034C000CF93DF93EC017B0162E20E94401A8701F7
:1034D000F80161918F01662391F0EBE4F3E0F28053
:1034E000FF2049F0329681816813F9CF6CE5CE0157
:1034F0000E94401A6F2DCE010E94401AE9CF62E26D
:10350000CE01DF91CF911F910F91FF90EF900C941E
:10351000401ACF92DF92EF92FF920F931F93CF93B7
:10352000DF93EC016A018B017B01E40EF51E0E15A1
:103530001F05A9F0F80121918F018AA19BA1AC017F
:103540004F5F5F4F5BA34AA3FE01E80FF91F228381
:103550000296809760F3CE010E94231AE8CF4CA117
:103560005DA14C0D5D1D5DA34CA3DF91CF911F911B
:103570000F91FF90EF90DF90CF900895EF92FF9220
:103580000F931F93CF93DF93CDB7DEB766970FB638
:10359000F894DEBF0FBECDBF8C01CB01FE01779644
:1035A0009F014AE0E42EF12CB7010E945E87805D06
:1035B0008293CB010097C1F7A9014E1B5F0BBF019E
:1035C000C8010E94891A66960FB6F894DEBF0FBE36
:1035D000CDBFDF91CF911F910F91FF90EF90089594
:1035E0008F929F92AF92BF92CF92DF92EF92FF9213
:1035F0000F931F93CF93DF93CDB7DEB766970FB6C8
:10360000F894DEBF0FBECDBF6C018E01095E1F4F67
:1036100078018AE0882E912CA12CB12CCB01BA0123
:10362000A50194010E943084942F852F605DF801DC
:1036300062938F01A901692F782F4115510561050A
:10364000710561F7A7014E1B5F0BBF01C6010E9408
:10365000891A66960FB6F894DEBF0FBECDBFDF9114
:10366000CF911F910F91FF90EF90DF90CF90BF907F
:10367000AF909F908F900895FB0101900020E9F793
:103680003197AF01461B570B0C94891A0F931F9368
:10369000CF938C01C0E0F80180A5C81738F46CE521
:1036A00073E0C8010E943C1BCF5FF5CFCF911F9103
:1036B0000F9108954F925F926F927F92AF92BF9257
:1036C000CF92DF92EF92FF920F931F93CF93DF93EE
:1036D000CDB7DEB76B970FB6F894DEBF0FBECDBF88
:1036E0008C016A017B01AB019601CB01B6010E94FE
:1036F000D7828823D1F063E673E0C8010E943C1BA7
:103700006B960FB6F894DEBF0FBECDBFDF91CF91A1
:103710001F910F91FF90EF90DF90CF90BF90AF90EF
:103720007F906F905F904F90089520E030E0A90166
:10373000C701B6010E94D782882371F0A7019601C4
:10374000C701B6010E9462849B01AC01C701B601AA
:103750000E94D782882379F220E030E0A901C701D6
:10376000B6010E94D78287FF08C06DE2C8010E949F
:10377000401AF7FAF094F7F8F0945E0121E1A20EF6
:10378000B11CB701A601C5010E94261449895A89B6
:103790006B897C89C8010E94F01AFB8CFF2071F1B3
:1037A0006D897E898F89988D6501EF2C2AE0422EE4
:1037B000512C612C712CEA94EFEFEE1659F0A30115
:1037C00092010E943084605DF60162936F01B9013D
:1037D000CA01F1CF8F2D90E0BC0160957095F50185
:1037E000E81BF90B31978EE2808344275527461B4F
:1037F000570B6A0D7B1DC8010E94891A898D9A8D0D
:1038000097FF0DC068E673E0C8010E943C1B698DFC
:103810007A8D719561957109C8010E94BE1A898DD2
:103820009A8D181619060CF06BCF65E6C8010E9438
:10383000401A698D7A8DC8010E94BE1A61CFCF925D
:10384000DF92EF92FF920F931F93CF93DF938C0140
:10385000EB01FC0184818F77863009F48CC068F419
:103860008230A0F0843008F06DC0428153816081C5
:103870007181CE010E94891A30C08C3039F148F430
:10388000883009F473C08A3009F462C063E673E0DB
:103890007EC0803291F18034C9F76BE5CE010E9481
:1038A000401AF801008111810115110509F1BE01CD
:1038B000C8010E941F1CC8010E94E0168C01892BC0
:1038C000B9F06CE2CE010E94401AEECF40815181E6
:1038D00062817381CE010E945A1B8CA19DA1DF9150
:1038E000CF911F910F91FF90EF90DF90CF900895AF
:1038F0006DE5CE010E94401AF0CF6BE7CE010E9429
:10390000401AF8010081118101151105C9F0F80173
:1039100066817781CE010E945C1A6AE3CE010E9423
:10392000401ABE01C8010E941F1CC8010E94E01677
:103930008C01892B29F06CE2CE010E94401AE4CF61
:103940006DE7D7CF60817181CE010E945C1AC5CF2F
:10395000C080D180E280F3806DE2CE010E94401AE7
:10396000B701A601CE010E94F01AB7CF4081518164
:1039700062817381F7CF80819181A281B38169E7F0
:1039800073E0892B8A2B8B2B11F46EE773E0CE0149
:103990000E943C1BA2CFCF92DF92EF92FF920F9337
:1039A0001F93CF93DF93FC01EB0194819F779630B7
:1039B00009F4B7C068F49230A8F0943008F098C0C9
:1039C0004281538160817181CE010E94891A4BC06E
:1039D0009C3009F441C048F4983009F49DC09A30F5
:1039E00009F48CC063E673E033C0903209F446C03A
:1039F0009034C1F7008111816FE673E00115110564
:103A000039F16BE673E0CE010E943C1B88A58F5F05
:103A100088A7CE010E94461BBE01C8010E94CB1C94
:103A2000C8010E94E0168C016FE573E0892B11F448
:103A300060E673E0CE010E943C1B0115110549F7B9
:103A400088A5815088A7CE010E94461B60E773E0DD
:103A5000CE010E943C1B07C040815181628173816D
:103A6000CE010E945A1B8CA19DA1DF91CF911F9185
:103A70000F91FF90EF90DF90CF900895008111811A
:103A800066E773E00115110519F362E773E0CE01F3
:103A90000E943C1B88A58F5F88A7CE010E94461B11
:103AA000F80166817781CE010E945C1A60EB73E0B9
:103AB000CE010E943C1BBE01C8010E94CB1CC80164
:103AC0000E94E0168C016FE573E0892B11F460E62B
:103AD00073E0CE010E943C1B01151105F1F688A58B
:103AE000815088A7CE010E94461B67E773E0B0CFE4
:103AF00060817181CE010E945C1AB5CFC080D180F7
:103B0000E280F3806DE2CE010E94401AB701A60167
:103B1000CE010E94F01AA7CF40815181628173814A
:103B2000F7CF80819181A281B38169E773E0892B0E
:103B30008A2B8B2B09F08CCF6EE773E089CFCF9364
:103B4000DF93CDB7DEB7A4970FB6F894DEBF0FBEF4
:103B5000CDBF24E2FB01DE01119601900D922A9562
:103B6000E1F724E2FE013196DC0101900D922A95E5
:103B7000E1F7FC0115A214A2CE0101960E94231ABE
:103B8000A4960FB6F894DEBF0FBECDBFDF91CF91E4
:103B900008950F931F93CF93DF93CDB7DEB7C55929
:103BA000D1090FB6F894DEBF0FBECDBF8C01E496ED
:103BB0007FAF6EAFE497CC56DF4F19821882C4599D
:103BC000D04084E2FE01EE58FF4FDE01A25BBF4F02
:103BD00001900D928A95E1F784E2FE01E25BFF4FCE
:103BE000DE019A9601900D928A95E1F7BE01665D1D
:103BF0007F4FCE0101960E949F1DCE018A960E94A2
:103C0000231A19A6BE016F5F7F4FC80109960E9453
:103C1000CB1C8C01CE0101960E94231ACE01825B3F
:103C20009F4F0E94231ACE018E589F4F0E94231A45
:103C3000C801CB56DF4F0FB6F894DEBF0FBECDBF25
:103C4000DF91CF911F910F910895CF93DF93EC01F6
:103C500088819981009711F00E9431881982188219
:103C60001D821C821B821A82DF91CF910895CF930F
:103C7000DF93EC01FB0144815581608171810E94D9
:103C8000E319811103C0CE010E94251ECE01DF91F0
:103C9000CF910895EF92FF920F931F93CF93DF93ED
:103CA000EC017B018A01BA010E94D81881110BC076
:103CB000CE010E94251ECE01DF91CF911F910F9161
:103CC000FF90EF9008951D830C83B701888199813F
:103CD0000E94F089F0CFFB0101900020E9F73197B5
:103CE000AF01461B570B0C944A1ECF93DF93EC0198
:103CF0006115710531F00E946B1ECE01DF91CF91ED
:103D000008950E94251EF9CFCF93DF93EC01FB01AC
:103D10008617970749F0608171816115710541F03F
:103D2000448155810E944A1ECE01DF91CF910895B2
:103D30000E94251EF9CFFC0180819181009711F02E
:103D40000C9431880895CF93DF93EC0183E892E0DF
:103D500099838883CE0184960E949B1ECE014E9645
:103D60000E949B1ECE0142960E949B1ECE010C9685
:103D7000DF91CF910C949B1EFC0111821082138263
:103D80001282158214826115710551F0FB010190B8
:103D90000020E9F73197AF01461B570B0C944A1EE0
:103DA0000895CF92DF92EF92FF920F931F93CF93DC
:103DB000DF93CDB7DEB7CA59D1090FB6F894DEBF8D
:103DC0000FBECDBF8C017B0161157105F9F0FB01C0
:103DD00084818F7784508230C8F46081718161154D
:103DE0007105A1F0C8010E94BC1EC801C656DF4F74
:103DF0000FB6F894DEBF0FBECDBFDF91CF911F91FC
:103E00000F91FF90EF90DF90CF9008956E01F5E94C
:103E1000CF0ED11C6BE573E0C6010E94BC1EE39679
:103E2000DFAECEAEE397CD56DF4F19821882C3596D
:103E3000D04084E2FE01EF58FF4FDE01A35BBF4F8D
:103E400001900D928A95E1F784E2FE01E35BFF4F5A
:103E5000DE01999601900D928A95E1F7BE01675DAA
:103E60007F4FCE0101960E949F1DCE0189960E9430
:103E7000231AE114F10419F1BE016F5F7F4FC701EE
:103E80000E941F1CCE0101960E94231ACE01835B63
:103E90009F4F0E94231ACE018F589F4F0E94231AD2
:103EA000F801118210821382128215821482B601E7
:103EB000C8010E949318C6010E949B1E96CF63E61C
:103EC00073E0CE0101960E943C1BDCCFFB01019008
:103ED0000020E9F73197AF01461B570BDC01ED914C
:103EE000FC910280F381E02D19948F929F92AF9202
:103EF000BF92EF92FF920F931F93CF93DF93CDB7B3
:103F0000DEB7A1970FB6F894DEBF0FBECDBF7C0120
:103F1000FA01CB0119A2223008F42AE08E010F5DCC
:103F20001F4F822E912CB12CA12CBF01A501940111
:103F30000E943084F901CA016A300CF5605DD80135
:103F40006E938D01232B242B252B79F790E080E0B5
:103F5000109721F0BD01C7010E94661FA1960FB600
:103F6000F894DEBF0FBECDBFDF91CF911F910F91AF
:103F7000FF90EF90BF90AF909F908F900895695CF5
:103F8000DECF60E673E00C94661F0F931F93CF9310
:103F9000DF938C01D0E0C0E06115710519F00E943B
:103FA000661FEC01C8010E94C11F8C0F9D1FDF918D
:103FB000CF911F910F9108950F931F93CF93DF938C
:103FC000EC01FB014481558160817181E881F981B7
:103FD0000280F381E02D19958C01CE010E94C11F52
:103FE000800F911FDF91CF911F910F910895DC01F8
:103FF000ED91FC910190F081E02D1994CF92DF9228
:10400000EF92FF920F931F93CF93DF936B01770F84
:10401000EE08FF084A305105F1F42AE0F7FE1CC013
:10402000EC016DE20E94F71F8C0144275527BA016D
:104030004C195D096E097F092AE0CE010E94751FA7
:10404000800F911FDF91CF911F910F91FF90EF9003
:10405000DF90CF900895242FB701A601DF91CF9173
:104060001F910F91FF90EF90DF90CF900C94751FF0
:104070008F929F92AF92BF92CF92DF92EF92FF9278
:104080000F931F93CF93DF937C018B016C0182E030
:10409000C80ED11C4701E5E08E0E911CD0E0C0E0B7
:1040A000F60141916F0150E070E060E02AE0C80144
:1040B0000E94751F5C016EE2C8010E94F71F8A0D05
:1040C0009B1DC80FD91FC814D90451F7F7014581AA
:1040D00050E070E060E02AE0C8010E94751F8C0F7C
:1040E0009D1FDF91CF911F910F91FF90EF90DF9077
:1040F000CF90BF90AF909F908F9008950F931F9394
:10410000CF93DF93EC01CB01BE010E9438208C01DC
:10411000CE010E94C11F800F911FDF91CF911F918F
:104120000F9108956115710511F00C94661F90E0D0
:1041300080E00895DC0187E493E08D939D9384E013
:10414000FB0101900D928A95E1F708951F920F925D
:104150000FB60F9211240BB60F922F933F934F93EC
:104160005F936F937F938F939F93AF93BF93EF93DF
:10417000FF9382E99AE00E945F08FF91EF91BF915F
:10418000AF919F918F917F916F915F914F913F91EF
:104190002F910F900BBE0F900FBE0F901F90189590
:1041A0001F920F920FB60F9211240BB60F922F93FE
:1041B0008F939F93EF93FF93E091A20AF091A30A4C
:1041C0008081E091A80AF091A90A82FD1DC090812A
:1041D0008091AB0A8F5F8F732091AC0A821741F0F8
:1041E000E091AB0AF0E0EE56F54F958F8093AB0A65
:1041F000FF91EF919F918F912F910F900BBE0F9098
:104200000FBE0F901F9018958081F2CF1F93CF9310
:10421000DF93282F30E0F901EA55F64F8491F90138
:10422000E35EF04FD491F901E952F14FC491CC23F0
:10423000A9F0162F81110E941F09EC2FF0E0EE0F5C
:10424000FF1FE250F64FA591B4918FB7F894EC910F
:10425000111108C0D095DE23DC938FBFDF91CF9181
:104260001F910895DE2BF8CF1092F80781E080931C
:10427000FA071092F90761E084E10E94062161E0EB
:1042800085E10E940621E9EBF0E080818E7F80834A
:1042900080818D7F808388E48093B80085E480935B
:1042A000BC000895CF93DF9391E09093B3078823E8
:1042B000B9F0C091B800D091BA008091BC008A7B5F
:1042C0008093BC0060E084E10E94062160E085E10B
:1042D0000E9406210E943421D093BA00C093B800F6
:1042E000DF91CF91089585ED8093BC008091AF0759
:1042F0009091B007A091B107B091B2070796A11DA8
:10430000B11D23E0B695A795979587952A95D1F786
:104310002091BC0024FD03C01092F807089540913D
:10432000AF075091B0076091B1077091B207452B6C
:10433000462B472B69F30097A105B10541F025E312
:104340002A95F1F700000197A109B109E1CF809109
:10435000AE070C945221CF93DF9390E0FC01E35E13
:10436000F04F24918952914FFC0184918823C9F028
:1043700090E0880F991FFC01E457F64FA591B49186
:10438000FC01E250F64FC591D49161110DC09FB769
:10439000F8948C91209582238C93888128232883FC
:1043A0009FBFDF91CF910895623051F49FB7F89489
:1043B0003C91822F809583238C93E8812E2BEFCF25
:1043C0008FB7F894EC912E2B2C938FBFEACF3FB789
:1043D000F8948091280890912908A0912A08B0911A
:1043E0002B0826B5A89B05C02F3F19F00196A11DEB
:1043F000B11D3FBFBA2FA92F982F8827BC01CD012F
:10440000620F711D811D911D42E0660F771F881F8D
:10441000991F4A95D1F708958F929F92AF92BF92BC
:10442000CF92DF92EF92FF924B015C010E94E72155
:104430006B017C010E94E7216C197D098E099F099F
:10444000683E734081059105A8F321E0821A910826
:10445000A108B10888EEC80E83E0D81EE11CF11C4B
:1044600081149104A104B10429F7FF90EF90DF902B
:10447000CF90BF90AF909F908F9008954F925F9292
:104480006F927F928F929F92AF92BF92CF92DF9264
:10449000EF92FF92CF93DF93EC012A013B010E9440
:1044A000E7216B017C018A8D9B8DAC8DBD8DA701B1
:1044B0009601281B390B4A0B5B0BCA01B9010E94FC
:1044C000DE829B01AC012E8B3F8B488F598FCA8EA9
:1044D000DB8EEC8EFD8ECA84DB84EC84FD84CE867C
:1044E000DF86E88AF98A4A8A5B8A6C8A7D8A6A81D1
:1044F0007B818C819D810E94CE849B01AC012E83A7
:104500003F834887598760E070E080E89FEB0E9416
:10451000CE840E9448854B015C01AC019B0160E0A8
:1045200070E080E89FE30E946184A30192010E94F1
:104530003D832B013C01A5019401C701B6010E94F6
:104540003D839B01AC01C301B2010E9462846A8772
:104550007B878C879D87CE01DF91CF91FF90EF9075
:10456000DF90CF90BF90AF909F908F907F906F9093
:104570005F904F900C947013CF93DF93EC016E9685
:104580000E943E22AB01BC01CE010E943E22CE0120
:10459000DF91CF910C9470132FB7F8946091240899
:1045A0007091250880912608909127082FBF0895C3
:1045B0001F920F920FB60F9211242F933F938F9358
:1045C0009F93AF93BF938091240890912508A09169
:1045D0002608B09127083091230823E0230F2D37B8
:1045E00058F50196A11DB11D20932308809324083E
:1045F00090932508A0932608B09327088091280857
:1046000090912908A0912A08B0912B080196A11D2C
:10461000B11D8093280890932908A0932A08B0938D
:104620002B08BF91AF919F918F913F912F910F9048
:104630000FBE0F901F90189526E8230F0296A11D1C
:10464000B11DD2CFCF93CFB7F89480911E088111BE
:1046500027C0ECE0FFE08491E2E5FFE09491E82FD1
:10466000F0E0EE0FFF1FE457F64FA591B491EC91E7
:10467000E92321F461E085E30E94062161E085E3FE
:104680000E94AB218CB580618CBD8CB580648CBDE3
:1046900061E084E30E94AB2161E083E30E94AB21EF
:1046A00080911E088F5F80931E08CFBFCF91089521
:1046B0001F920F920FB60F9211240BB60F922F93E9
:1046C0003F934F935F936F937F938F939F93AF939A
:1046D000BF93EF93FF938091B900887F803609F4F0
:1046E0004DC008F040C0883209F4A9C028F58031D7
:1046F00009F49DC0C8F4882309F4FBC0883009F48C
:1047000096C0FF91EF91BF91AF919F918F917F9153
:104710006F915F914F913F912F910F900BBE0F9032
:104720000FBE0F901F901895883109F488C0803211
:1047300041F78093F70714C0803409F49DC040F41A
:104740008033B9F38833E9F68093F70785ECB0C07E
:10475000803509F485C0883509F496C0883489F617
:104760000E947321CECF883909F48CC038F5883780
:1047700029F050F4883611F0803719F683E08093E1
:10478000F8071092F60757C0883809F47BC08039C3
:1047900019F0803809F0B5CF8091F607803208F023
:1047A00071C0E091F60781E08E0F8093F60780914B
:1047B000BB00F0E0EA52F84F80833DC0803B39F007
:1047C000E0F4803A09F479C0883A09F09ACF84E09D
:1047D0008093F8071092D5071092D407E0912D0826
:1047E000F0912E0819958091D40781110FC081E0B6
:1047F0008093D4071092B40709C0803C09F4A6CF77
:10480000883C09F4A3CF883B09F07BCFE091D50722
:1048100081E08E0F8093D507F0E0EC54F84F808153
:104820008093BB009091D5078091D40729C08091D7
:104830001D088093BB0085EC8093BC0062CF9091F3
:104840001C0880911B08981758F5E0911C0881E01E
:104850008E0F80931C08F0E0E550F84F8081E9CF7F
:10486000E0911C0881E08E0F80931C088091BB00B2
:10487000F0E0E550F84F808390911C0880911B0870
:104880009817C8F285E8D8CFE0911C0881E08E0F18
:1048900080931C088091BB00F0E0E550F84F8083C6
:1048A0008091FA0781115CCF81E08093F90784EA57
:1048B0008093BC001092F80724CF85EC8093BC0055
:1048C0001092F8078091F607803230F4E091F607F5
:1048D000F0E0EA52F84F10826091F60770E0E09144
:1048E0002F08F091300886ED97E019951092F607A1
:1048F00008CF1092F70734CF9B01AC0160E074E25F
:1049000084EF90E00E94308420513109410951091F
:1049100056954795379527952093B8000895CF92DF
:10492000DF92EF92FF920F931F93CF93DF93D0917B
:104930008E0A81E0D13208F09CC0C091900A0E949A
:10494000E7216B017C018091F80781116CC082E046
:104950008093F80781E08093FA078FEF8093F70741
:1049600010921C08D0931B08AEE6B7E0EBEFF7E01F
:1049700080E0D8138DC010921D0880911D08CC0FC7
:10498000C82BC0931D088091F907813009F084C0BD
:104990001092F9070E94E7216B017C0180911D08AC
:1049A0008093BB008091AF079091B007A091B107B1
:1049B000B091B207892B8A2B8B2BA1F00E94E721A3
:1049C0000091AF071091B0072091B1073091B20765
:1049D0006C197D098E099F090617170728073907E3
:1049E00008F442C08091BC0083FDD8CF85EC809351
:1049F000BC000E94E7216B017C018091F8078230A6
:104A000009F44CC08091F7078F3F09F469C0809189
:104A1000F707803209F466C08091F707803309F404
:104A200063C084E026C08091AF079091B007A09149
:104A3000B107B091B207892B8A2B8B2B09F483CF56
:104A40000E94E7210091AF071091B0072091B107B4
:104A50003091B2076C197D098E099F090617170757
:104A60002807390708F06FCF8091AE070E945221C6
:104A700085E010928F0A10928E0A1092910ADF91AF
:104A8000CF911F910F91FF90EF90DF90CF900895FD
:104A90009D9191938F5F6DCF85EEA9CF8091AF07E8
:104AA0009091B007A091B107B091B207892B8A2BE2
:104AB0008B2B09F4A2CF0E94E7210091AF07109140
:104AC000B0072091B1073091B2076C197D098E09AA
:104AD0009F09061717072807390708F08ECFC4CF9C
:104AE00080E0C7CF82E0C5CF83E0C3CF089561E007
:104AF000FC0184810E940621809168078111109237
:104B0000680708958EBD00000DB407FEFDCF8EB579
:104B10000895AF92BF92CF92DF92EF92FF920F93E0
:104B20001F93CF93DF9300D01F92CDB7DEB78C01D8
:104B30006B017A01809188088333E9F45B01680195
:104B4000C40ED51EC016D106A9F10E94F0098FE04F
:104B50000E948225812F0E948225802F0E9482251B
:104B60000F5F1F4F80E00E948225F50181935F0156
:104B70000E94E609E7CF843369F50E94F0091983A2
:104B80000A838F2D8F778B83EC8264E070E0CE01F7
:104B900001960E94CC09A70170E060E0C6010E9466
:104BA000CA89E114F10421F0B701C6010E94CC09C1
:104BB0000E94E609C7010F900F900F900F90DF91B0
:104BC000CF911F910F91FF90EF90DF90CF90BF900A
:104BD000AF9008950E94F0090F3F110509F030F4DD
:104BE00019820A831B8263E070E0D1CF17FD0BC0EE
:104BF00019820A8333E0169507953A95E1F7007E0E
:104C000008600B83F0CFC80126E0969587952A951A
:104C1000E1F7807E19830A830115104C18F4806136
:104C20008B83E1CF8861FCCFCF93DF931F92CDB709
:104C3000DEB72091220830E0322F2227260F371FBF
:104C400090E0982F882741E050E0BE016F5F7F4FD2
:104C5000820F931F0E94892589810F90DF91CF9148
:104C6000089563E070E00C941426CF93DF931F92B5
:104C7000CDB7DEB741E050E0BE016F5F7F4F90E0FF
:104C800080E00E94892589810F90DF91CF9108955E
:104C9000CF93DF93C4E1D0E00E943526882361F0F2
:104CA00061E070E080E090E00E940C222197A1F783
:104CB00080E0DF91CF91089581E0FBCFDA01E091B0
:104CC0002208F0E0FE2FEE27E60FF71F90E0982F66
:104CD0008827A901BD018E0F9F1F0C948925EF9293
:104CE000FF921F93CF93DF931F921F92CDB7DEB732
:104CF000182F22E030E0AE014F5F5F4F60E270E0BE
:104D00000E945E26E980FA80FE24EF24FE2422E041
:104D100030E0AE014F5F5F4F60E270E0812F0E9494
:104D20005E2689819A81982789279827E816F906AF
:104D300089F487E0189FF0011124E05CF74FF582B9
:104D4000E482C7010F900F90DF91CF911F91FF90E8
:104D5000EF9008957C01DBCFFF920F931F93CF93C9
:104D6000DF931F921F92CDB7DEB7F82E22E030E01E
:104D7000AE014F5F5F4F66E270E00E945E260981E0
:104D80001A8110270127102722E030E0AE014F5F83
:104D90005F4F66E270E08F2D0E945E2689819A81C6
:104DA0009827892798270817190749F4C8010F90F1
:104DB0000F90DF91CF911F910F91FF9008958C017B
:104DC000E3CFAF92BF92CF92DF92EF92FF920F9319
:104DD0001F93CF93DF9300D000D01F921F92CDB7C7
:104DE000DEB78C017B016A01809188088333E1F48E
:104DF0005801A40EB51EA016B10609F46FC00E949A
:104E0000F00980EF0E948225812F0E948225802F49
:104E10000E9482250F5F1F4FF70181917F010E9441
:104E200082250E94E609E7CF5B01A40EB51E8433FC
:104E3000C1F40E94F00919830A838D2D80688B8349
:104E4000CC8264E070E0CE0101960E94CC09AE14E1
:104E5000BF0409F441C0F70181917F010E948225BE
:104E6000F6CF0E94F0090F3F110509F028F41982CE
:104E70000A8384E08B830CC017FD17C019820A8354
:104E800033E0169507953A95E1F7007E0C600B83A9
:104E900086E0C816D104A0F5F701DE011496EA15E4
:104EA000FB0599F081918D93FACFC80126E0969584
:104EB00087952A95E1F7807E19830A830115104CA6
:104EC00010F48461D7CF8C61D5CFB6016D5F7F4F71
:104ED000CE0101960E94CC090E94E609C6012896DF
:104EE0000FB6F894DEBF0FBECDBFDF91CF911F91FB
:104EF0000F91FF90EF90DF90CF90BF90AF9008950B
:104F000063E070E0CE0101960E94CC09F701819127
:104F10007F010E948225AE14BF04C1F7DDCFCF937D
:104F2000DF931F92CDB7DEB7898341E050E0BE0129
:104F30006F5F7F4F90E080E00E94E1260F90DF914D
:104F4000CF910895DA01E0912208F0E0FE2FEE27DC
:104F5000E60FF71F90E0982F8827A901BD018E0F5B
:104F60009F1F0C94E1266F927F929F92AF92BF9207
:104F7000CF92DF92EF92FF920F931F93CF93DF9325
:104F80001F921F92CDB7DEB7982E8B013A016901AF
:104F900022E030E0AE014F5F5F4F64E270E00E94BC
:104FA0005E26E980FA80FE24EF24FE24E00EF11E46
:104FB0009701377040918808092D10E0C8014333EC
:104FC00009F04CC00896982F8827990F990F990FD0
:104FD000820F931F473309F446C0A9014C0D5D1D94
:104FE0004130584008F43FC060E078E05B01A21A0D
:104FF000B30AA501B3010E94E126A6014A195B0983
:10500000B3016A0D7B1D80918808833349F5085FE1
:105010001F4F000F000F000F80E0902F0E94E1262D
:10502000EC0CFD1CF982EA8222E030E0AE014F5F19
:105030005F4F64E270E0892D0E94A2270F900F90CD
:10504000DF91CF911F910F91FF90EF90DF90CF9064
:10505000BF90AF909F907F906F9008954096B3CF90
:10506000005F1F4FD6CFA601B301D8CFCF93DF93F8
:105070001F921F92CDB7DEB779836A8322E030E0BA
:10508000AE014F5F5F4F60E170E00E94A2270F907A
:105090000F90DF91CF910895CF93DF931F921F92CE
:1050A000CDB7DEB779836A8322E030E0AE014F5F8F
:1050B0005F4F64E070E00E94A2270F900F90DF9195
:1050C000CF910895CF93DF931F92CDB7DEB7209194
:1050D000220830E0322F2227260F371F90E0982F2A
:1050E0008827498341E050E0BE016F5F7F4F820F08
:1050F000931F0E94E1260F90DF91CF910895CF93E7
:10510000C82F462F61E070E00E94622861E070E0E5
:105110008C2F0E9414268111F9CFCF91089544E07D
:1051200050E0BC018FE090E00C94E12644E050E0B8
:10513000BC0185E090E00C94E12644E050E0BC0125
:1051400081E090E00C94E1261F93CF93DF93EC0174
:105150008D8D9E8D009721F1162F29A131E030937E
:10516000910A2093900A10928F0A10928E0ADC0105
:10517000ED91FC910190F081E02D60E019958D8D0D
:105180009E8DDC01ED91FC910190F081E02D612F6D
:1051900019958D8D9E8DDF91CF911F910C948F2449
:1051A000ADA5BEA59C918BA9809589238C938B8DF1
:1051B0009C8D892B31F0862FDF91CF911F910C941C
:1051C000822528E030E080E8A9A5BAA599A9462F54
:1051D0004823C1F04C91942B9C93ABA5BCA59C910A
:1051E0004AA9942B9C93ABA5BCA54C919AA99095E8
:1051F00094239C9386952150310931F7DF91CF910B
:105200001F9108954C9190959423E6CF8FEF0C94C5
:1052100082258CBD9DBD08951F93CF93DF931F9270
:105220001F92CDB7DEB760E372E080E090E00E94AD
:105230000C220E942223E1EEFEE0E491F0E0EE0F6A
:10524000FF1FE250F64F859194919093210880932F
:105250002008E7E2FFE0E491E0931F0861E08AE0C4
:105260000E94AB210E94E60980E591E00E94092995
:1052700084E38093880880E80E948F270E94482654
:105280008823C1F188E00E948F270E94352688304C
:1052900089F580E10E948F270E943526803151F5E3
:1052A00080E00E948F270E943526182F811122C08E
:1052B00041E050E0BE016F5F7F4F8FE190E00E94C0
:1052C000892589818330B1F480E48093220842E00B
:1052D0006EE170E0812F0E94622842E06FE170E091
:1052E000812F0E9462281F5F183089F781E0809328
:1052F0008B0A6AC087E38093880880E80E948F2722
:105300000E944826882329F188E00E948F270E9466
:1053100035268830F1F480E10E948F270E943526DF
:10532000182F8031B1F480E00E948F270E9435262B
:1053300081110FC041E050E0BE016F5F7F4F89E3F4
:1053400090E00E9489258981843019F41093220805
:10535000CDCF83E38093880880E80E948F270E9446
:105360004826882371F180E10E948F270E9435260C
:10537000803139F582E10E948F270E9435268231E3
:1053800001F580E00E948F270E943526811119C007
:1053900084E08093220815E51A8341E050E0BE01C5
:1053A0006E5F7F4F8BE190E00E94E126198341E020
:1053B00050E0BE016F5F7F4F8AE190E00E94E126DE
:1053C00095CF1092880880E00F900F90DF91CF91D9
:1053D0001F9108951F93CF93DF93182F80E591E0DD
:1053E0000E940929812F0E946F26EC01812F0E94C3
:1053F0003126873121F08C3111F0D0E0C0E0CE01B0
:10540000DF91CF911F910895FC018485883010F4BD
:105410000C94EA2990E080E00895CF92DF92EF9219
:10542000FF921F93CF93DF93182F7B01EA01413046
:10543000584010F0C0E0D8E080E591E00E940929D2
:10544000812F0E946F266C01812F0E9431268731A7
:1054500011F08C3121F5CC16DD0670F380E591E07A
:105460000E9409299E01A70170E060E0812F0E943F
:10547000B32760E270E0812F0E947F2862E070E035
:10548000812F0E94142684FD0DC0812F0E94312699
:105490008823B9F080E591E00E940929EFCFD0E0A0
:1054A000C0E0DCCF40E162E070E0812F0E94622822
:1054B000CE01DF91CF911F91FF90EF90DF90CF90C1
:1054C0000895D0E0C0E0F4CF0F931F93CF93DF9304
:1054D0008C01EA01FC018485883048F40E940D2A81
:1054E000892B39F481E090E0F80193838283D0E046
:1054F000C0E0CE01DF91CF911F910F9108951F93CE
:10550000CF93DF931F92CDB7DEB7182F80E591E0E0
:105510000E940929812F0E94FB0927E0129FF001B8
:105520001124E05CF74F22813381377041E050E075
:10553000BE016F5F7F4F820F931F0E948925898173
:105540000F90DF91CF911F910895FC01808D8830DD
:1055500040F4218D328D232B21F00E947F2A90E090
:1055600008958FEF9FEF0895CF93DF93FC0124857B
:10557000283028F08FEF9FEFDF91CF910895EC0155
:105580000190F081E02D0084F185E02D1995892BA3
:1055900089F38C850E947F2A90E0EECF1F93CF93F2
:1055A000DF93182F87E0189FE0011124C05CD74FCC
:1055B00088819981009761F480E591E00E94092932
:1055C000812F0E94AC262E81821B910999838883AA
:1055D000DF91CF911F910895FC018485883010F4EC
:1055E0000C94CE2A90E080E008954F925F927F92D3
:1055F0008F929F92AF92BF92CF92DF92EF92FF92E3
:105600000F931F93CF93DF931F921F92CDB7DEB7F7
:10561000782E6B014A01A82EB12C27E0829FC00191
:105620001124FC01E05CF74F7F010081118180E5CE
:1056300091E00E9409290815190554F4872D0E944C
:10564000AC26F70126818C01021B1109118300830E
:105650000115110519F5872D0E943126843159F065
:10566000882349F001E010E08C3111F410E000E0F3
:10567000119501951109C8010F900F90DF91CF91FD
:105680001F910F91FF90EF90DF90CF90BF90AF9060
:105690009F908F907F905F904F9008958016910615
:1056A0000CF4840187E08A9DF0018B9DF00D11249C
:1056B000E05CF74FE280F380C114D10451F127017F
:1056C000F7E05F22872D0E94FB09840D951D209134
:1056D0008808273309F453C09801240D351D213063
:1056E000384008F44CC020E038E04901841895089F
:1056F000A401B6010E9489252601480C591C6801A5
:10570000C818D908872D0E94FB09A601B2010E9482
:105710008925E00EF11E87E08A9DF0018B9DF00D3A
:105720001124E05CF74FF382E28220813181201B5B
:10573000310B318320838681800F912F911D8A3F09
:10574000910510F4232BF1F487E08A9DF0018B9DE5
:10575000F00D1124E05CF74F1682F982EA8222E014
:1057600030E0AE014F5F5F4F68E270E0872D0E942E
:10577000A22760E470E0872D0E947F287CCFA801DB
:10578000B601C5CF868377CFCF93DF93FC01218D00
:10579000328D2115310529F48FEF9FEFDF91CF91E5
:1057A0000895EC01808D4217530708F0A9010E946B
:1057B000F52A1816190684F7298D3A8D281B390BFE
:1057C0003A8F298FEBCF0F931F93CF93DF931F92C5
:1057D000CDB7DEB7FC01218D328D232B41F48FEF45
:1057E0009FEF0F90DF91CF911F910F9108958C0142
:1057F00041E050E0BE016F5F7F4FFC01808D0E9451
:10580000F52A181619065CF7F801818D928D01971B
:10581000928F818F898190E0E4CF0F931F93CF9374
:10582000DF9300D000D01F921F92CDB7DEB78C015E
:10583000D80159964D915C915A974115510551F0F7
:10584000ED91FC91048CF58DE02D70E060E0C801D5
:105850001995EECFF801808D0E94CE2A892BB1F1E7
:1058600048E050E0BE016F5F7F4FD80158968C91A1
:105870000E94F52A18161906F4F4D801509684E00F
:10588000FE01319601900D928A95E1F78D8190E0AD
:10589000982F88272E81820F911DF801958B848B7C
:1058A0008F81282F30E0322F22278885820F932F77
:1058B000911D928F818F28960FB6F894DEBF0FBE90
:1058C000CDBFDF91CF911F910F91089590E080E0BF
:1058D000F2CF3F924F925F926F927F928F929F9200
:1058E000AF92BF92CF92DF92EF92FF920F931F93EE
:1058F000CF93DF93CDB7DEB7EA970FB6F894DEBF4C
:105900000FBECDBF7C012A013B0169010E94CC2260
:105910004B015C0187010D5B1F4FC8010E940D2CDC
:10592000181619069CF00E94CC22681979098A0978
:105930009B09461657066806790608F4C5C162E356
:1059400070E080E090E00E940C22E7CF42E250E05D
:10595000BE016F5F7F4FC8010E94C42B89818230D6
:1059600009F03CC1F801848995898334910509F0D7
:1059700035C16D817E818F8198850E947A874B0128
:105980005C01F60180829182A282B38246E050E0FF
:10599000B701685F7F4FCE014D960E94B489892B75
:1059A00009F095C1F70180819181A281B3818816A8
:1059B0009906AA06BB0608F48AC184819581A6814E
:1059C000B78188159905AA05BB0508F480C18989A6
:1059D0009A89AB89BC8986879787A08BB18B4EEC5F
:1059E00050E070E060E0C8010E94C42B312CC70178
:1059F000829698AB8FA7F701B696FAABE9AB0896FB
:105A00009CAB8BAB67019AE1C90ED11CBD96FEAB76
:105A1000EDABC701429698AF8FABFD97FAAFE9AFF8
:105A20004701FEE18F0E911CF801818D928D1816B1
:105A300019060CF0D4C0C8010E94E32B83339105F2
:105A400009F4B2C014F58130910509F464C044F43E
:105A5000892B51F3C8010E94E32BAC01552775C077
:105A60008330910509F462C00697A1F7C8010E942E
:105A7000E32BB82E44E050E0B401C8010E94C42BCF
:105A8000EB2DE450FF0BAF0160C08A33910509F4A0
:105A90005FC084F585339105B1F1C697D9F6C80189
:105AA0000E94E32B5C01B601CE0189960E949A20E8
:105AB0008BA59CA5ADA5BEA5892B8A2B8B2BB1F000
:105AC000EDA9FEA94080518062807380B601CE01AD
:105AD00083960E949A208DA19EA1AFA1B8A5A50191
